:100000000C9462000C948A000C948A000C948A0070
:100010000C948A000C948A000C948A000C948A0038
:100020000C948A000C948A000C948A000C948A0028
:100030000C948A000C948A000C948A000C948A0018
:100040000C94EA050C948A000C945A060C9434061D
:100050000C948A000C948A000C948A000C948A00F8
:100060000C948A000C948A000000000024002700F1
:100070002A0000000000250028002B0000000000DE
:1000800023002600290004040404040404040202DA
:100090000202020203030303030301020408102007
:1000A0004080010204081020010204081020000012
:1000B0000008000201000003040700000000000027
:1000C00000008C0611241FBECFEFD8E0DEBFCDBFED
:1000D00024E0ACE7B3E001C01D92A93AB207E1F712
:1000E00013E0A0E0B1E0EEE1F9E102C005900D926D
:1000F000AC37B107D9F710E0C2E6D0E004C02197D1
:10010000FE010E94680BC136D107C9F70E94310772
:100110000C948D0C0C9400004F925F926F927F9222
:100120008F929F92AF92BF92CF92DF92EF92FF9207
:100130000F931F9340919B0450919C044F5F5F4F1E
:1001400060E0C12CD12C760188248A94982CA82CAC
:10015000B12C80E090E0DC01262F30E042175307FD
:100160008CF1220F331F220F331FF901EE5DFB4F7D
:100170004384548465847684481459046A047B0457
:1001800024F483849484A584B684F901EE5DFB4F46
:100190004384548465847684C414D504E604F70447
:1001A00024F4C384D484E584F6842E5D3B4FF901A6
:1001B0000385148525853685800F911FA21FB31FE7
:1001C0006F5FCACF88199909AA09BB09BC01CD0183
:1001D0006C197D098E099F092091890404C09595A9
:1001E0008795779567952A95D2F71F910F91FF9084
:1001F000EF90DF90CF90BF90AF909F908F907F90C7
:100200006F905F904F9008950F931F930E948C0002
:1002100060939D0470939E0480939F049093A00428
:100220000091790410917A0420917B0430917C0430
:10023000601B710B820B930B0E940F0A2091290403
:1002400030912A0440912B0450912C040E946E0A94
:100250001F910F910895833081F028F4813099F037
:100260008230A9F008958730A9F08830C9F0843031
:10027000B1F4809180008F7D03C0809180008F77E2
:1002800080938000089584B58F7784BD089584B5E8
:100290008F7DFBCF8091B0008F778093B000089561
:1002A0008091B0008F7DF9CFCF93DF93282F30E07E
:1002B000F901E255FF4F8491F901E656FF4FD491C1
:1002C000F901EA57FF4FC491CC23A1F081110E949C
:1002D0002B01EC2FF0E0EE0FFF1FE458FF4FA5912C
:1002E000B491EC91ED2381E090E009F480E0DF919E
:1002F000CF91089580E090E0FACF1F93CF93DF93E2
:10030000282F30E0F901E255FF4F8491F901E656BC
:10031000FF4FD491F901EA57FF4FC491CC23A9F0C4
:10032000162F81110E942B01EC2FF0E0EE0FFF1F22
:10033000EE58FF4FA591B4918FB7F894EC9111113D
:1003400008C0D095DE23DC938FBFDF91CF911F9142
:100350000895DE2BF8CF3FB7F894809181039091F8
:100360008203A0918303B091840326B5A89B05C0A6
:100370002F3F19F00196A11DB11D3FBFBA2FA92F24
:10038000982F8827BC01CD01620F711D811D911D21
:1003900042E0660F771F881F991F4A95D1F708958D
:1003A0002FB7F89460917D0370917E0380917F0355
:1003B000909180032FBF0895CF92DF92EF92FF922A
:1003C000CF93809123040E9454018111C6C00E94E2
:1003D000AB01C0907F04D0908004E0908104F09045
:1003E00082046C197D098E099F09609383047093C0
:1003F000840480938504909386040E94AB016093EB
:100400007F047093800480938104909382041092FF
:100410009504C0E0C12CD12C76018091240490E099
:100420004796C817190609F0BCF461E080912204D0
:100430000E947D0160E0809122040E947D01C8310C
:1004400048F4809123040E945401CC0CDD1CEE1C66
:10045000FF1CC82ACF5FE1CF80E8E826C114D10491
:10046000E10491E0F90618F021E02093A104209125
:10047000A704222361F04FEF5FEF6FEF70E0DB0125
:10048000CA018C199D09AE09BF096C017D0120913B
:100490007D0430917E0440919B0450919C044F5FF9
:1004A0005F4F24173507D9F510927E0410927D0412
:1004B000C114D104E104F104F1F0209195042F5FFF
:1004C00020939504E0917D04F0917E04EE0FFF1FD0
:1004D000EE0FFF1FEE5DFB4FC386D486E586F686E2
:1004E00080918B04882339F0809188048231F0F464
:1004F0008F5F809388040E94D0016093A204709360
:10050000A3048093A4049093A5041092A604809160
:100510009504CF91FF90EF90DF90CF9008952F5FDB
:100520003F4F30937E0420937D04C2CF0E948C0005
:100530006093790470937A0480937B0490937C0495
:100540001092880410928B0481E08093960480912D
:1005500095048F5F80939504CECF0E94D001C09008
:10056000A204D090A304E090A404F090A5046C1918
:100570007D098E099F09653671058105910518F081
:1005800081E08093A60410929504C1CFAF92BF92F0
:10059000CF92DF92EF92FF920F931F93CF93DF934F
:1005A0006C017B018B01040F151FEB015E01AE187E
:1005B000BF08C017D10759F06991D601ED91FC91A0
:1005C0000190F081E02DC6010995892B79F7C501CD
:1005D000DF91CF911F910F91FF90EF90DF90CF901F
:1005E000BF90AF900895FC01538D448D252F30E0CE
:1005F000842F90E0821B930B541710F0CF96089530
:1006000001970895FC01918D828D981761F0A28D5C
:10061000AE0FBF2FB11D5D968C91928D9F5F9F7322
:10062000928F90E008958FEF9FEF0895FC01918DD8
:10063000828D981731F0828DE80FF11D858D90E045
:1006400008958FEF9FEF08950F931F930E94D0019D
:1006500060938D0370938E0380938F039093900328
:1006600085E893E00E94160397FF1DC00E94D00109
:1006700000918D0310918E0320918F033091900390
:10068000601B710B820B930B0091890310918A03FD
:1006900020918B0330918C036017710782079307B9
:1006A000F8F28FEF9FEF1F910F9108958F929F9215
:1006B000AF92BF92CF92DF92EF92FF92CF93DF93F0
:1006C0000E942403FC0197FD88C08D32910509F03A
:1006D0004CC0812C912C80E8A82E8FE3B82EC12C21
:1006E000D12C7601C0E0D0E0E130F10559F1ED32D6
:1006F000F10509F447C0EE32F10509F445C0CF0118
:10070000C0970A97F8F4AAE0B0E0A70196010E940A
:100710002C0B6F01FF0FEE08FF08C60ED71EE81E58
:10072000F91E80E3C81AD108E108F108CC2351F082
:100730002DEC3CEC4CEC5DE3C501B4010E946E0A6B
:100740004B015C0185E893E00E9402030E942403B0
:10075000FC01C0970A9740F2EE32F105B9F4CC23C0
:1007600019F2CD2FD11118C025C0C0970A9708F4EF
:10077000B0CFEE32F10509F4ACCF85E893E00E94EA
:1007800002039ECFD1E0DECFC1E0DCCFE130F10546
:1007900009F4AACFDD2341F0F094E094D094C09402
:1007A000C11CD11CE11CF11CC701B6010E940F0A3B
:1007B000CC2341F0C701B6010E940F0AA5019401A4
:1007C0000E946E0ADF91CF91FF90EF90DF90CF9063
:1007D000BF90AF909F908F90089560E070E0CB0144
:1007E000F1CFFC01918D228D892F90E0805C9F4F8D
:1007F000821B91098F739927089585E893E00E94E1
:10080000F10321E0892B09F420E0822F089580E094
:1008100090E0892B29F00E94FD0381110C940000C7
:100820000895FC01A48DA80FB92FB11DA35ABF4F85
:100830002C91848D90E001968F739927848FA689DF
:10084000B7892C93A089B1898C91837080648C9333
:10085000938D848D981306C00288F389E02D8081E2
:100860008F7D80830895EF92FF920F931F93CF9314
:10087000DF93EC0181E0888F9B8D8C8D98131AC0DB
:10088000E889F989808185FF15C09FB7F894EE89C2
:10089000FF896083E889F98980818370806480831F
:1008A0009FBF81E090E0DF91CF911F910F91FF906A
:1008B000EF900895F62E0B8D10E00F5F1F4F0F7312
:1008C0001127E02E8C8D8E110CC00FB607FCFACFCD
:1008D000E889F989808185FFF5CFCE010E94110456
:1008E000F1CFEB8DEC0FFD2FF11DE35AFF4FF0829E
:1008F0009FB7F8940B8FEA89FB8980818062CFCF04
:10090000CF93DF93EC01888D8823B9F0AA89BB8946
:10091000E889F9898C9185FD03C0808186FD0DC031
:100920000FB607FCF7CF8C9185FFF2CF808185FF52
:10093000EDCFCE010E941104E9CFDF91CF91089550
:10094000FC0101900020E9F73197AF01481B590BDA
:10095000BC0185E893E00C94C6028F929F92AF92FF
:10096000BF920F931F93CF93DF93CDB7DEB7A197BD
:100970000FB6F894DEBF0FBECDBF19A2423008F407
:100980004AE08E010F5D1F4F842E912CB12CA12CBB
:10099000A50194010E94460BE62FB901CA01EA3075
:1009A000F4F4E05DD801EE938D01232B242B252B4D
:1009B00079F790E080E0109719F0CD010E94A00433
:1009C000A1960FB6F894DEBF0FBECDBFDF91CF91D9
:1009D0001F910F91BF90AF909F908F900895E95C09
:1009E000E1CFCF93DF930E94A004EC0182E191E07C
:1009F0000E94A0048C0F9D1FDF91CF9108954F920C
:100A00005F926F927F928F929F92AF92BF92CF929E
:100A1000DF92EF92FF920F931F93CF936B017C01B4
:100A2000742EAC019B010E94880C882399F085E10B
:100A300091E0CF911F910F91FF90EF90DF90CF90B9
:100A4000BF90AF909F908F907F906F905F904F90EE
:100A50000C94A00446015701E894B7F82FEF3FEF3C
:100A60004FE75FE7C501B4010E94880C81110DC0FA
:100A70002FEF3FEF4FE75FE7C501B4010E94080A7F
:100A800018161CF489E191E0D4CF2FEF3FEF4FE728
:100A90005FE4C701B6010E94830C18161CF48DE1B7
:100AA00091E0C7CF2FEF3FEF4FE75FECC701B601F3
:100AB0000E94080A87FDF3CF20E030E0A901C701BA
:100AC000B6010E94080A10E000E087FF0AC06DE24C
:100AD00085E893E00E9433048C01F7FAF094F7F86C
:100AE000F094C0E060E070E080E09FE37C1641F0AD
:100AF00020E030E040E251E40E94DB0BCF5FF6CF14
:100B0000A70196010E946F0B2B013C010E94540C1F
:100B10004B015C014AE00E94AD047C01E00EF11E35
:100B2000CC23C1F1C501B4010E940D0A9B01AC01A7
:100B3000C301B2010E946E0B4B015C016EE285E8BD
:100B400093E00E943304E80EF91EC15018F120E032
:100B500030E040E251E4C501B4010E946E0A2B016D
:100B60003C010E94540C4B01B12CA12C4AE0C50160
:100B7000B4010E94AD04E80EF91EC501B4010E9443
:100B80000D0A9B01AC01C301B2010E946E0B4B0127
:100B90005C01DBCFC701CF911F910F91FF90EF90C8
:100BA000DF90CF90BF90AF909F908F907F906F908D
:100BB0005F904F900895CF93DF9342E00E94FF042F
:100BC000EC0182E191E00E94A0048C0F9D1FDF9157
:100BD000CF9108951F920F920FB60F9211242F9369
:100BE0003F938F939F93AF93BF9380917D03909199
:100BF0007E03A0917F03B091800330917C0323E0BA
:100C0000230F2D3758F50196A11DB11D20937C03AC
:100C100080937D0390937E03A0937F03B093800322
:100C20008091810390918203A0918303B09184030A
:100C30000196A11DB11D8093810390938203A0931F
:100C40008303B0938403BF91AF919F918F913F91A4
:100C50002F910F900FBE0F901F90189526E8230F2D
:100C60000296A11DB11DD2CF1F920F920FB60F9207
:100C700011242F933F934F935F936F937F938F93A1
:100C80009F93AF93BF93EF93FF9385E893E00E9408
:100C90001104FF91EF91BF91AF919F918F917F913F
:100CA0006F915F914F913F912F910F900FBE0F90D9
:100CB0001F9018951F920F920FB60F9211242F9329
:100CC0008F939F93EF93FF93E0919503F091960399
:100CD0008081E0919B03F0919C0382FD1BC0908179
:100CE00080919E038F5F8F7320919F03821741F045
:100CF000E0919E03F0E0EB57FC4F958F80939E03AD
:100D0000FF91EF919F918F912F910F900FBE0F90B8
:100D10001F9018958081F4CFE5E8F3E013821282EA
:100D200088EE93E0A0E0B0E084839583A683B78348
:100D300084E091E09183808385EC90E095878487BF
:100D400084EC90E09787868780EC90E0918B808B95
:100D500081EC90E0938B828B82EC90E0958B848B7E
:100D600086EC90E0978B868B118E128E138E148EEC
:100D7000E2E2F4E080E090E0A0E8BFE383839483C4
:100D8000A583B68387839087A187B2871092790461
:100D900010927A0410927B0410927C0410927E04CC
:100DA00010927D0410927F041092800410928104AE
:100DB000109282041092830410928404109285048D
:100DC0001092860481E0809387041092880484E066
:100DD0008093890480938A0410928B0410928C046F
:100DE00010928D0410928E0410928F041092900431
:100DF0001092910410929204109293041092940411
:100E000010929504109296048CE89AE090939804BE
:100E1000809397041092990410929A0480E190E0D4
:100E200090939C0480939B0410929D0410929E04C6
:100E300010929F041092A0041092A1041092A20498
:100E40001092A3041092A4041092A5041092A60478
:100E50001092A7041092A80483E0818385E0808328
:100E60000895789484B5826084BD84B5816084BD22
:100E700085B5826085BD85B5816085BD80916E0038
:100E8000816080936E001092810080918100826069
:100E900080938100809181008160809381008091A6
:100EA00080008160809380008091B1008460809395
:100EB000B1008091B00081608093B00080917A0091
:100EC000846080937A0080917A00826080937A00B7
:100ED00080917A00816080937A0080917A008068A6
:100EE00080937A001092C100E0919503F0919603EF
:100EF00082E08083E0919503F09196031082E09167
:100F00009103F09192031082E0919303F091940386
:100F100080E1808310929D03E0919903F0919A0300
:100F200086E08083E0919703F0919803808180614F
:100F30008083E0919703F09198038081886080839B
:100F4000E0919703F0919803808180688083E0911D
:100F50009703F091980380818F7D80830E94AB017D
:100F60004B015C016AE0C62ED12CE12CF12C0E94D1
:100F7000AB01681979098A099B09683E73408105AC
:100F80009105A8F321E0C21AD108E108F10888EE22
:100F9000880E83E0981EA11CB11CC114D104E10489
:100FA000F10429F782E191E00E94A00481E291E03E
:100FB0000E94F1048091220490E0FC01E656FF4F6C
:100FC00024918A579F4FFC018491882399F090E0E7
:100FD000880F991FFC01E859FF4FA591B491FC01BE
:100FE000EE58FF4F859194918FB7F894EC91E22BD6
:100FF000EC938FBF8091230490E0FC01E656FF4FF5
:1010000024918A579F4FFC0184918823C1F090E07E
:10101000880F991FFC01E859FF4FC591D491FC013D
:10102000EE58FF4FA591B4919FB7F8948881E22FB5
:10103000E0958E2388838C91E823EC939FBF81E019
:101040008093240460E0809122040E947D018091BD
:101050009B0490919C0422E02093890424E030E0DA
:1010600030939C0420939B040497F9F040919D04D5
:1010700050919E0460919F047091A00420E0822F03
:1010800090E08630910569F0880F991F880F991FAD
:10109000FC01EE5DFB4F43875487658776872F5FA2
:1010A000EECF10927E0410927D040E94D0016093D6
:1010B000A2047093A3048093A4049093A5040E94B7
:1010C000D001603679408105910518F40E94DC0159
:1010D000F6CF81E080938B041092880410929904DB
:1010E0000E94D00120919704309198046B017C01FB
:1010F000C20ED31EE11CF11C0E94DC01C82F80919E
:101100009A0481110BC00E94D001C616D706E806CA
:10111000F90620F481E08093990402C0C23061F79F
:101120001092960480919904811104C08091A604C4
:10113000882329F08DE291E00E94F104FFCF86EF31
:1011400098EEA1EFB3E48093250490932604A09336
:101150002704B093280481E994E7A7E0BBE38093D8
:10116000290490932A04A0932B04B0932C0482E6C4
:1011700091E00E94F104C0E0D0E011E00E9404017F
:101180000E944D0C6B01770FEE08FF084AE0C70183
:10119000B601F7FE0DC06DE285E893E00E943304CE
:1011A00066277727CB016C197D098E099F094AE0D4
:1011B0000E94AD0482E191E00E94A00485E893E0E2
:1011C0000E94F1031816190664F485E893E00E9462
:1011D00002038237D1F410938B041092880410928A
:1011E00096048091960410929604882321F08BE156
:1011F00092E00E94F104209709F20E94FD038823E7
:1012000009F4BCCF0E940000B9CF833609F0B2C008
:1012100086E791E00E94F1048AE791E00E94F104E0
:101220008DE891E00E94F1048CEB91E00E94F104C2
:1012300086EE91E00E94F1040E94DC0185E893E0D3
:101240000E94F103181619069CF485E893E00E94A9
:10125000F1031816190664F485E893E00E9402036E
:10126000843731F410938B04109288041092960402
:1012700080919604109296048823F1F28BE192E01B
:101280000E94F10489E292E00E94F10485E592E077
:101290000E94F1040E94DC0185E893E00E94F103C2
:1012A00018161906BCF70E9456034B015C0120E09A
:1012B00030E0A9010E94080A882361F389E992E0DD
:1012C0000E94A004C501B4010E94DB05E0909B04CC
:1012D000F0909C0422E0E20EF11C10927E04109229
:1012E0007D041E141F0474F40E94DC018091230409
:1012F0000E945401892BA9F70E94040181E0E81A99
:10130000F108EFCF0E9404012091250430912604BA
:1013100040912704509128040E946E0AA50194016F
:101320000E94DB0B6B017C01C0922504D092260445
:10133000E0922704F0922804AC019B0160E070E089
:1013400080E89FE30E94DB0B6093290470932A04DA
:1013500080932B0490932C0489EA92E00E94A004CD
:1013600042E0C701B6010E94FF0481ED92E00E94B5
:10137000F10437CF833709F034CFC0902504D090E3
:101380002604E0902704F090280486E791E00E946C
:10139000F10485E193E00E94A004C701B6010E9418
:1013A000DB0588E293E00E94F10485E893E00E9467
:1013B000F10318161906CCF70E9456036B017C0145
:1013C00020E030E0A9010E94080A882371F380E63A
:1013D00093E00E94A004C701B6010E94DB05C09201
:1013E0002504D0922604E0922704F0922804A70155
:1013F000960160E070E080E89FE30E94DB0B609361
:10140000290470932A0480932B0490932C04E9CE32
:101410000E944A0A08F481E00895E89409C097FB05
:101420003EF490958095709561957F4F8F4F9F4FBB
:101430009923A9F0F92F96E9BB279395F6958795FF
:1014400077956795B795F111F8CFFAF4BB0F11F4C2
:1014500060FF1BC06F5F7F4F8F4F9F4F16C0882369
:1014600011F096E911C0772321F09EE8872F762F9F
:1014700005C0662371F096E8862F70E060E02AF0E0
:101480009A95660F771F881FDAF7880F96958795CC
:1014900097F90895990F0008550FAA0BE0E8FEEFA1
:1014A00016161706E807F907C0F012161306E40728
:1014B000F50798F0621B730B840B950B39F40A2621
:1014C00061F0232B242B252B21F408950A2609F4FF
:1014D000A140A6958FEF811D811D08950E94810A6C
:1014E0000C94F20A0E94E40A38F00E94EB0A20F001
:1014F000952311F00C94DB0A0C94E10A11240C944E
:10150000260B0E94030B70F3959FC1F3950F50E0DB
:10151000551F629FF001729FBB27F00DB11D639FA5
:10152000AA27F00DB11DAA1F649F6627B00DA11D4B
:10153000661F829F2227B00DA11D621F739FB00DF1
:10154000A11D621F839FA00D611D221F749F332761
:10155000A00D611D231F849F600D211D822F762FFA
:101560006A2F11249F5750409AF0F1F088234AF0D7
:10157000EE0FFF1FBB1F661F771F881F9150504043
:10158000A9F79E3F510580F00C94DB0A0C94260BC2
:101590005F3FE4F3983ED4F3869577956795B795CA
:1015A000F795E7959F5FC1F7FE2B880F911D9695E4
:1015B000879597F9089597F99F6780E870E060E054
:1015C00008959FEF80EC089500240A9416161706DC
:1015D00018060906089500240A9412161306140624
:1015E00005060895092E0394000C11F4882352F087
:1015F000BB0F40F4BF2B11F460FF04C06F5F7F4F3F
:101600008F4F9F4F089557FD9058440F551F59F025
:101610005F3F71F04795880F97FB991F61F09F3FDF
:1016200079F087950895121613061406551FF2CF08
:101630004695F1DF08C0161617061806991FF1CF58
:1016400086957105610508940895E894BB2766277F
:101650007727CB0197F908950E94370BA59F900D2E
:10166000B49F900DA49F800D911D11240895A29FF9
:10167000B001B39FC001A39F700D811D1124911D66
:10168000B29F700D811D1124911D0895A1E21A2EA3
:10169000AA1BBB1BFD010DC0AA1FBB1FEE1FFF1F16
:1016A000A217B307E407F50720F0A21BB30BE40B66
:1016B000F50B661F771F881F991F1A9469F76095AD
:1016C0007095809590959B01AC01BD01CF01089567
:1016D000EE0FFF1F0590F491E02D09945058BB27A1
:1016E000AA270E94860B0C94F20A0E94E40A38F0A2
:1016F0000E94EB0A20F039F49F3F19F426F40C9471
:10170000E10A0EF4E095E7FB0C94DB0AE92F0E9456
:10171000030B58F3BA17620773078407950720F085
:1017200079F4A6F50C94250B0EF4E0950B2EBA2F48
:10173000A02D0B01B90190010C01CA01A0011124D7
:10174000FF27591B99F0593F50F4503E68F11A1683
:10175000F040A22F232F342F4427585FF3CF469514
:1017600037952795A795F0405395C9F77EF41F1636
:10177000BA0B620B730B840BBAF09150A1F0FF0F00
:10178000BB1F661F771F881FC2F70EC0BA0F621FEC
:10179000731F841F48F4879577956795B795F795DC
:1017A0009E3F08F0B0CF9395880F08F09927EE0F71
:1017B0009795879508950E94EF0B0C94F20A0E946A
:1017C000EB0A58F00E94E40A40F029F45F3F29F048
:1017D0000C94DB0A51110C94260B0C94E10A0E9424
:1017E000030B68F39923B1F3552391F3951B550B24
:1017F000BB27AA2762177307840738F09F5F5F4FE4
:10180000220F331F441FAA1FA9F335D00E2E3AF022
:10181000E0E832D091505040E695001CCAF72BD03A
:10182000FE2F29D0660F771F881FBB1F261737078B
:101830004807AB07B0E809F0BB0B802DBF01FF27BD
:1018400093585F4F3AF09E3F510578F00C94DB0AB5
:101850000C94260B5F3FE4F3983ED4F3869577957E
:101860006795B795F7959F5FC9F7880F911D969576
:10187000879597F90895E1E0660F771F881FBB1FD2
:10188000621773078407BA0720F0621B730B840B7F
:10189000BA0BEE1F88F7E09508950E94540C6894E7
:1018A000B1110C94260B08950E940B0B88F09F57E2
:1018B00098F0B92F9927B751B0F0E1F0660F771F74
:1018C000881F991F1AF0BA95C9F714C0B13091F06A
:1018D0000E94250BB1E008950C94250B672F782FFB
:1018E0008827B85F39F0B93FCCF38695779567952F
:1018F000B395D9F73EF490958095709561957F4F9B
:101900008F4F9F4F08950E944A0A08F48FEF089561
:0E1910000E944A0A880B990B0895F894FFCFA5
:10191E00000000003304C602F3028004F103020348
:10192E0016030D0A006E616E00696E66006F7666B4
:10193E00005374617274696E672E2E2E0054696D99
:10194E00656F75742C20636865636B204D43553E3F
:10195E00485837313120776972696E6720616E643D
:10196E002070696E2064657369676E6174696F6E4D
:10197E0073005374617274757020697320636F6D98
:10198E00706C657465002A2A2A0053746172742083
:10199E0063616C6962726174696F6E3A00506C615A
:1019AE00636520746865206C6F61642063656C6C80
:1019BE0020616E2061206C6576656C2073746162A7
:1019CE006C6520737572666163652E0052656D6F6E
:1019DE00766520616E79206C6F6164206170706C29
:1019EE0069656420746F20746865206C6F61642073
:1019FE0063656C6C2E0053656E6420277427206619
:101A0E00726F6D2073657269616C206D6F6E697493
:101A1E006F7220746F207365742074686520746112
:101A2E007265206F66667365742E00546172652050
:101A3E00636F6D706C657465004E6F772C20706CE3
:101A4E0061636520796F7572206B6E6F776E206D96
:101A5E00617373206F6E20746865206C6F616463B0
:101A6E00656C6C2E005468656E2073656E64207410
:101A7E00686520776569676874206F662074686989
:101A8E0073206D6173732028692E652E20313030DE
:101A9E002E30292066726F6D2073657269616C201D
:101AAE006D6F6E69746F722E004B6E6F776E206D58
:101ABE006173732069733A20004E65772063616C01
:101ACE006962726174696F6E2076616C75652068EB
:101ADE006173206265656E2073657420746F3A20A1
:101AEE00002C207573652074686973206173206300
:101AFE00616C6962726174696F6E2076616C756576
:101B0E00202863616C466163746F722920696E20B0
:101B1E00796F75722070726F6A65637420736B656E
:101B2E007463682E0043757272656E742076616CF4
:101B3E0075652069733A20004E6F772C2073656EA1
:101B4E006420746865206E65772076616C756520FB
:101B5E0066726F6D2073657269616C206D6F6E6950
:101B6E00746F722C20692E652E203639362E300079
:101B7E004E65772063616C6962726174696F6E2065
:0C1B8E0076616C75652069733A200000D8
:00000001FF
